:060000000A128A11122809
:10000800FE00030EF1000408F2000A08F300831250
:1000180003137F08F4000A128A1182280A128A112F
:10002800C9280A128A11BB200A128A11E8308312E1
:100038000313A2000330A300212808142308A100F9
:100048002208A00001300310A10CA00CFF3E031DE4
:1000580027282008F5002108F6000A128A11A12095
:100068000A128A118312031308102308A100220818
:10007800A00001300310A10CA00CFF3E031D3E2878
:100088002008F5002108F6000A128A11A1200A1298
:100098008A116A28E83083120313A2000330A300F0
:1000A8002128F430A2000130A30021284D30A200FD
:1000B8000130A3002128FA30A2000030A300212833
:1000C800C830A2000030A30021282128831203137E
:1000D8002408013A03194E28033A03195528013A0E
:1000E80003195A28073A03195F28013A03196428A3
:1000F8002128212821280A128A1112288B1C8528D8
:10010800862896280130F0007008A40706302402DB
:10011800031C8F2890289428A4010314A40D942864
:100128008B1096287408FF0073088A0072088400F0
:10013800710E8300FE0E7E0E0900A928F930F70023
:100148006400F70BA428A82864000130F5020030E9
:10015800031CF603F602FF307606031DB528FF30B0
:100168007506031DB828B928A228BA2808008316DE
:100178000313081006148312031308100B168B10B0
:100188008B178316031301170800831203130A122F
:100198008A11D5200A128A11A40083010A128A1131
:0401A80015280134E1
:00000001FF
